{
  "contractName": "HANDSToken",
  "abi": [
    {
      "constant": true,
      "inputs": [],
      "name": "mintingFinished",
      "outputs": [
        {
          "name": "",
          "type": "bool"
        }
      ],
      "payable": false,
      "stateMutability": "view",
      "type": "function"
    },
    {
      "constant": true,
      "inputs": [],
      "name": "name",
      "outputs": [
        {
          "name": "",
          "type": "string"
        }
      ],
      "payable": false,
      "stateMutability": "view",
      "type": "function"
    },
    {
      "constant": false,
      "inputs": [
        {
          "name": "_spender",
          "type": "address"
        },
        {
          "name": "_value",
          "type": "uint256"
        }
      ],
      "name": "approve",
      "outputs": [
        {
          "name": "",
          "type": "bool"
        }
      ],
      "payable": false,
      "stateMutability": "nonpayable",
      "type": "function"
    },
    {
      "constant": true,
      "inputs": [],
      "name": "totalSupply",
      "outputs": [
        {
          "name": "",
          "type": "uint256"
        }
      ],
      "payable": false,
      "stateMutability": "view",
      "type": "function"
    },
    {
      "constant": false,
      "inputs": [
        {
          "name": "_from",
          "type": "address"
        },
        {
          "name": "_to",
          "type": "address"
        },
        {
          "name": "_value",
          "type": "uint256"
        }
      ],
      "name": "transferFrom",
      "outputs": [
        {
          "name": "",
          "type": "bool"
        }
      ],
      "payable": false,
      "stateMutability": "nonpayable",
      "type": "function"
    },
    {
      "constant": true,
      "inputs": [],
      "name": "decimals",
      "outputs": [
        {
          "name": "",
          "type": "uint8"
        }
      ],
      "payable": false,
      "stateMutability": "view",
      "type": "function"
    },
    {
      "constant": false,
      "inputs": [],
      "name": "unpause",
      "outputs": [],
      "payable": false,
      "stateMutability": "nonpayable",
      "type": "function"
    },
    {
      "constant": false,
      "inputs": [
        {
          "name": "_to",
          "type": "address"
        },
        {
          "name": "_amount",
          "type": "uint256"
        }
      ],
      "name": "mint",
      "outputs": [
        {
          "name": "",
          "type": "bool"
        }
      ],
      "payable": false,
      "stateMutability": "nonpayable",
      "type": "function"
    },
    {
      "constant": true,
      "inputs": [],
      "name": "paused",
      "outputs": [
        {
          "name": "",
          "type": "bool"
        }
      ],
      "payable": false,
      "stateMutability": "view",
      "type": "function"
    },
    {
      "constant": false,
      "inputs": [
        {
          "name": "_spender",
          "type": "address"
        },
        {
          "name": "_subtractedValue",
          "type": "uint256"
        }
      ],
      "name": "decreaseApproval",
      "outputs": [
        {
          "name": "success",
          "type": "bool"
        }
      ],
      "payable": false,
      "stateMutability": "nonpayable",
      "type": "function"
    },
    {
      "constant": true,
      "inputs": [
        {
          "name": "_owner",
          "type": "address"
        }
      ],
      "name": "balanceOf",
      "outputs": [
        {
          "name": "",
          "type": "uint256"
        }
      ],
      "payable": false,
      "stateMutability": "view",
      "type": "function"
    },
    {
      "constant": false,
      "inputs": [],
      "name": "renounceOwnership",
      "outputs": [],
      "payable": false,
      "stateMutability": "nonpayable",
      "type": "function"
    },
    {
      "constant": false,
      "inputs": [],
      "name": "finishMinting",
      "outputs": [
        {
          "name": "",
          "type": "bool"
        }
      ],
      "payable": false,
      "stateMutability": "nonpayable",
      "type": "function"
    },
    {
      "constant": false,
      "inputs": [],
      "name": "pause",
      "outputs": [],
      "payable": false,
      "stateMutability": "nonpayable",
      "type": "function"
    },
    {
      "constant": true,
      "inputs": [],
      "name": "owner",
      "outputs": [
        {
          "name": "",
          "type": "address"
        }
      ],
      "payable": false,
      "stateMutability": "view",
      "type": "function"
    },
    {
      "constant": true,
      "inputs": [],
      "name": "symbol",
      "outputs": [
        {
          "name": "",
          "type": "string"
        }
      ],
      "payable": false,
      "stateMutability": "view",
      "type": "function"
    },
    {
      "constant": false,
      "inputs": [
        {
          "name": "_to",
          "type": "address"
        },
        {
          "name": "_value",
          "type": "uint256"
        }
      ],
      "name": "transfer",
      "outputs": [
        {
          "name": "",
          "type": "bool"
        }
      ],
      "payable": false,
      "stateMutability": "nonpayable",
      "type": "function"
    },
    {
      "constant": false,
      "inputs": [
        {
          "name": "_spender",
          "type": "address"
        },
        {
          "name": "_addedValue",
          "type": "uint256"
        }
      ],
      "name": "increaseApproval",
      "outputs": [
        {
          "name": "success",
          "type": "bool"
        }
      ],
      "payable": false,
      "stateMutability": "nonpayable",
      "type": "function"
    },
    {
      "constant": true,
      "inputs": [
        {
          "name": "_owner",
          "type": "address"
        },
        {
          "name": "_spender",
          "type": "address"
        }
      ],
      "name": "allowance",
      "outputs": [
        {
          "name": "",
          "type": "uint256"
        }
      ],
      "payable": false,
      "stateMutability": "view",
      "type": "function"
    },
    {
      "constant": false,
      "inputs": [
        {
          "name": "_newOwner",
          "type": "address"
        }
      ],
      "name": "transferOwnership",
      "outputs": [],
      "payable": false,
      "stateMutability": "nonpayable",
      "type": "function"
    },
    {
      "inputs": [
        {
          "name": "_name",
          "type": "string"
        },
        {
          "name": "_symbol",
          "type": "string"
        },
        {
          "name": "_decimals",
          "type": "uint8"
        }
      ],
      "payable": false,
      "stateMutability": "nonpayable",
      "type": "constructor"
    },
    {
      "anonymous": false,
      "inputs": [
        {
          "indexed": true,
          "name": "burner",
          "type": "address"
        },
        {
          "indexed": false,
          "name": "value",
          "type": "uint256"
        }
      ],
      "name": "Burn",
      "type": "event"
    },
    {
      "anonymous": false,
      "inputs": [
        {
          "indexed": true,
          "name": "to",
          "type": "address"
        },
        {
          "indexed": false,
          "name": "amount",
          "type": "uint256"
        }
      ],
      "name": "Mint",
      "type": "event"
    },
    {
      "anonymous": false,
      "inputs": [],
      "name": "MintFinished",
      "type": "event"
    },
    {
      "anonymous": false,
      "inputs": [],
      "name": "Pause",
      "type": "event"
    },
    {
      "anonymous": false,
      "inputs": [],
      "name": "Unpause",
      "type": "event"
    },
    {
      "anonymous": false,
      "inputs": [
        {
          "indexed": true,
          "name": "previousOwner",
          "type": "address"
        }
      ],
      "name": "OwnershipRenounced",
      "type": "event"
    },
    {
      "anonymous": false,
      "inputs": [
        {
          "indexed": true,
          "name": "previousOwner",
          "type": "address"
        },
        {
          "indexed": true,
          "name": "newOwner",
          "type": "address"
        }
      ],
      "name": "OwnershipTransferred",
      "type": "event"
    },
    {
      "anonymous": false,
      "inputs": [
        {
          "indexed": true,
          "name": "owner",
          "type": "address"
        },
        {
          "indexed": true,
          "name": "spender",
          "type": "address"
        },
        {
          "indexed": false,
          "name": "value",
          "type": "uint256"
        }
      ],
      "name": "Approval",
      "type": "event"
    },
    {
      "anonymous": false,
      "inputs": [
        {
          "indexed": true,
          "name": "from",
          "type": "address"
        },
        {
          "indexed": true,
          "name": "to",
          "type": "address"
        },
        {
          "indexed": false,
          "name": "value",
          "type": "uint256"
        }
      ],
      "name": "Transfer",
      "type": "event"
    },
    {
      "constant": false,
      "inputs": [
        {
          "name": "_value",
          "type": "uint256"
        }
      ],
      "name": "burn",
      "outputs": [],
      "payable": false,
      "stateMutability": "nonpayable",
      "type": "function"
    }
  ],
  "bytecode": "0x60806040526003805460a060020a61ffff02191690553480156200002257600080fd5b50604051620011443803806200114483398101604090815281516020808401519284015160038054600160a060020a031916331790559284018051929094019392918391859184916200007b91600491860190620000b2565b50815162000091906005906020850190620000b2565b506006805460ff191660ff9290921691909117905550620001579350505050565b828054600181600116156101000203166002900490600052602060002090601f016020900481019282601f10620000f557805160ff191683800117855562000125565b8280016001018555821562000125579182015b828111156200012557825182559160200191906001019062000108565b506200013392915062000137565b5090565b6200015491905b808211156200013357600081556001016200013e565b90565b610fdd80620001676000396000f30060806040526004361061011c5763ffffffff7c010000000000000000000000000000000000000000000000000000000060003504166305d2035b811461012157806306fdde031461014a578063095ea7b3146101d457806318160ddd146101f857806323b872dd1461021f578063313ce567146102495780633f4ba83a1461027457806340c10f191461028b57806342966c68146102af5780635c975abb146102c757806366188463146102dc57806370a0823114610300578063715018a6146103215780637d64bcb4146103365780638456cb591461034b5780638da5cb5b1461036057806395d89b4114610391578063a9059cbb146103a6578063d73dd623146103ca578063dd62ed3e146103ee578063f2fde38b14610415575b600080fd5b34801561012d57600080fd5b50610136610436565b604080519115158252519081900360200190f35b34801561015657600080fd5b5061015f610458565b6040805160208082528351818301528351919283929083019185019080838360005b83811015610199578181015183820152602001610181565b50505050905090810190601f1680156101c65780820380516001836020036101000a031916815260200191505b509250505060405180910390f35b3480156101e057600080fd5b50610136600160a060020a03600435166024356104e6565b34801561020457600080fd5b5061020d610511565b60408051918252519081900360200190f35b34801561022b57600080fd5b50610136600160a060020a0360043581169060243516604435610517565b34801561025557600080fd5b5061025e610544565b6040805160ff9092168252519081900360200190f35b34801561028057600080fd5b5061028961054d565b005b34801561029757600080fd5b50610136600160a060020a03600435166024356105c5565b3480156102bb57600080fd5b506102896004356106cf565b3480156102d357600080fd5b506101366106f2565b3480156102e857600080fd5b50610136600160a060020a0360043516602435610702565b34801561030c57600080fd5b5061020d600160a060020a0360043516610726565b34801561032d57600080fd5b50610289610741565b34801561034257600080fd5b506101366107af565b34801561035757600080fd5b50610289610858565b34801561036c57600080fd5b506103756108d5565b60408051600160a060020a039092168252519081900360200190f35b34801561039d57600080fd5b5061015f6108e4565b3480156103b257600080fd5b50610136600160a060020a036004351660243561093f565b3480156103d657600080fd5b50610136600160a060020a0360043516602435610963565b3480156103fa57600080fd5b5061020d600160a060020a0360043581169060243516610987565b34801561042157600080fd5b50610289600160a060020a03600435166109b2565b6003547501000000000000000000000000000000000000000000900460ff1681565b6004805460408051602060026001851615610100026000190190941693909304601f810184900484028201840190925281815292918301828280156104de5780601f106104b3576101008083540402835291602001916104de565b820191906000526020600020905b8154815290600101906020018083116104c157829003601f168201915b505050505081565b60035460009060a060020a900460ff161561050057600080fd5b61050a83836109d2565b9392505050565b60015490565b60035460009060a060020a900460ff161561053157600080fd5b61053c848484610a38565b949350505050565b60065460ff1681565b600354600160a060020a0316331461056457600080fd5b60035460a060020a900460ff16151561057c57600080fd5b6003805474ff0000000000000000000000000000000000000000191690556040517f7805862f689e2f13df9f062ff482ad3ad112aca9e0847911ed832e158c525b3390600090a1565b600354600090600160a060020a031633146105df57600080fd5b6003547501000000000000000000000000000000000000000000900460ff161561060857600080fd5b60015461061b908363ffffffff610b9d16565b600155600160a060020a038316600090815260208190526040902054610647908363ffffffff610b9d16565b600160a060020a03841660008181526020818152604091829020939093558051858152905191927f0f6798a560793a54c3bcfe86a93cde1e73087d944c0ea20544137d412139688592918290030190a2604080518381529051600160a060020a03851691600091600080516020610f928339815191529181900360200190a350600192915050565b60035460a060020a900460ff16156106e657600080fd5b6106ef81610bb0565b50565b60035460a060020a900460ff1681565b60035460009060a060020a900460ff161561071c57600080fd5b61050a8383610bba565b600160a060020a031660009081526020819052604090205490565b600354600160a060020a0316331461075857600080fd5b600354604051600160a060020a03909116907ff8df31144d9c2f0f6b59d69b8b98abd5459d07f2742c4df920b25aae33c6482090600090a26003805473ffffffffffffffffffffffffffffffffffffffff19169055565b600354600090600160a060020a031633146107c957600080fd5b6003547501000000000000000000000000000000000000000000900460ff16156107f257600080fd5b6003805475ff000000000000000000000000000000000000000000191675010000000000000000000000000000000000000000001790556040517fae5184fba832cb2b1f702aca6117b8d265eaf03ad33eb133f19dde0f5920fa0890600090a150600190565b600354600160a060020a0316331461086f57600080fd5b60035460a060020a900460ff161561088657600080fd5b6003805474ff0000000000000000000000000000000000000000191660a060020a1790556040517f6985a02210a168e66602d3235cb6db0e70f92b3ba4d376a33c0f3d9434bff62590600090a1565b600354600160a060020a031681565b6005805460408051602060026001851615610100026000190190941693909304601f810184900484028201840190925281815292918301828280156104de5780601f106104b3576101008083540402835291602001916104de565b60035460009060a060020a900460ff161561095957600080fd5b61050a8383610caa565b60035460009060a060020a900460ff161561097d57600080fd5b61050a8383610d79565b600160a060020a03918216600090815260026020908152604080832093909416825291909152205490565b600354600160a060020a031633146109c957600080fd5b6106ef81610e12565b336000818152600260209081526040808320600160a060020a038716808552908352818420869055815186815291519394909390927f8c5be1e5ebec7d5bd14f71427d1e84f3dd0314c0f7b2291e5b200ac8c7c3b925928290030190a350600192915050565b6000600160a060020a0383161515610a4f57600080fd5b600160a060020a038416600090815260208190526040902054821115610a7457600080fd5b600160a060020a0384166000908152600260209081526040808320338452909152902054821115610aa457600080fd5b600160a060020a038416600090815260208190526040902054610acd908363ffffffff610e9016565b600160a060020a038086166000908152602081905260408082209390935590851681522054610b02908363ffffffff610b9d16565b600160a060020a03808516600090815260208181526040808320949094559187168152600282528281203382529091522054610b44908363ffffffff610e9016565b600160a060020a0380861660008181526002602090815260408083203384528252918290209490945580518681529051928716939192600080516020610f92833981519152929181900390910190a35060019392505050565b81810182811015610baa57fe5b92915050565b6106ef3382610ea2565b336000908152600260209081526040808320600160a060020a038616845290915281205480831115610c0f57336000908152600260209081526040808320600160a060020a0388168452909152812055610c44565b610c1f818463ffffffff610e9016565b336000908152600260209081526040808320600160a060020a03891684529091529020555b336000818152600260209081526040808320600160a060020a0389168085529083529281902054815190815290519293927f8c5be1e5ebec7d5bd14f71427d1e84f3dd0314c0f7b2291e5b200ac8c7c3b925929181900390910190a35060019392505050565b6000600160a060020a0383161515610cc157600080fd5b33600090815260208190526040902054821115610cdd57600080fd5b33600090815260208190526040902054610cfd908363ffffffff610e9016565b3360009081526020819052604080822092909255600160a060020a03851681522054610d2f908363ffffffff610b9d16565b600160a060020a03841660008181526020818152604091829020939093558051858152905191923392600080516020610f928339815191529281900390910190a350600192915050565b336000908152600260209081526040808320600160a060020a0386168452909152812054610dad908363ffffffff610b9d16565b336000818152600260209081526040808320600160a060020a0389168085529083529281902085905580519485525191937f8c5be1e5ebec7d5bd14f71427d1e84f3dd0314c0f7b2291e5b200ac8c7c3b925929081900390910190a350600192915050565b600160a060020a0381161515610e2757600080fd5b600354604051600160a060020a038084169216907f8be0079c531659141344cd1fd0a4f28419497f9722a3daafe3b4186f6b6457e090600090a36003805473ffffffffffffffffffffffffffffffffffffffff1916600160a060020a0392909216919091179055565b600082821115610e9c57fe5b50900390565b600160a060020a038216600090815260208190526040902054811115610ec757600080fd5b600160a060020a038216600090815260208190526040902054610ef0908263ffffffff610e9016565b600160a060020a038316600090815260208190526040902055600154610f1c908263ffffffff610e9016565b600155604080518281529051600160a060020a038416917fcc16f5dbb4873280815c1ee09dbd06736cffcc184412cf7a71a0fdb75d397ca5919081900360200190a2604080518281529051600091600160a060020a03851691600080516020610f928339815191529181900360200190a350505600ddf252ad1be2c89b69c2b068fc378daa952ba7f163c4a11628f55a4df523b3efa165627a7a72305820cbe61ad335e2d592874c5402e0448a2ab04abf14e46f710f8b201094005445970029",
  "source": "pragma solidity 0.4.24;\n\nimport \"openzeppelin-solidity/contracts/token/ERC20/PausableToken.sol\";\nimport \"openzeppelin-solidity/contracts/token/ERC20/MintableToken.sol\";\nimport \"openzeppelin-solidity/contracts/token/ERC20/BurnableToken.sol\";\nimport \"openzeppelin-solidity/contracts/token/ERC20/DetailedERC20.sol\";\n\ncontract HANDSToken is PausableToken, MintableToken, BurnableToken, DetailedERC20 {\n\n    constructor( \n        string _name, string _symbol,\n        uint8 _decimals\n      )\n      DetailedERC20(_symbol, _name, _decimals)\n      public\n    {\n    }\n    function burn(uint256 _value) whenNotPaused public {\n        super.burn(_value);\n    }\n\n}\n",
  "sourcePath": "/Users/rebelius/Documents/GitHub/hands_coin/contracts/HANDSToken.sol",
  "compiler": {
    "name": "solc",
    "version": "0.4.24+commit.e67f0147.Emscripten.clang"
  },
  "schemaVersion": "2.0.1",
  "updatedAt": "2018-07-27T00:18:38.365Z"
}